:100000000C9462000C948B020C9464020C948A0091
:100010000C948A000C948A000C948A000C948A0038
:100020000C948A000C948A000C948A000C948A0028
:100030000C948A000C948A000C948A000C948A0018
:100040000C944C090C948A000C94BC090C949609ED
:100050000C948A000C948A000C948A000C948A00F8
:100060000C948A000C948A000000000025002800EF
:100070002B0000000000240027002A0004040404D0
:100080000404040402020202020203030303030342
:10009000010204081020408001020408102001021F
:1000A00004081020000000002300260029000000A2
:1000B0000008000201000003040700000000000027
:1000C0000000EE0911241FBECFEFD8E0DEBFCDBF88
:1000D00011E0A0E0B1E0E8E4FAE102C005900D9281
:1000E000A235B107D9F722E0A2E5B1E001C01D9227
:1000F000A435B207E1F710E0C2E6D0E004C02197D2
:10010000FE010E94170DC136D107C9F70E942C0AC3
:100110000C94220D0C9400000895F894209149024B
:10012000233021F42091450221110FC02091490272
:10013000233011F4789407C0DC01ED91FC91028822
:10014000F389E02D099580E00895DC01ED91FC91A3
:100150000488F589E02D61E0099581E0089581E04A
:100160008093920180918F0190919001DC01ED913B
:10017000FC910484F585E02D099510929201089573
:10018000CF93DF931F92CDB7DEB7DC01ED91FC91E9
:100190000480F581E02D698309956981882361F0E8
:1001A00080919301861711F06F3F29F490914802D6
:1001B00081E0911101C080E00F90DF91CF9108950F
:1001C0002F923F924F925F927F928F929F92AF9227
:1001D000BF92CF92DF92EF92FF920F931F93CF9334
:1001E000DF93EC01B62E4A01722EA02E10E0CE2C29
:1001F000D12CE12CF12CE881F9810190F081E02DE6
:1002000001E0272DA4016B2DCE0109950E94400924
:100210001B012C010E944009DC01CB0182199309CA
:10022000A409B5098C159D05AE05BF0538F46B2DE5
:10023000CE010E94C000882369F309C01F5FA11688
:10024000D0F68D858F3110F48F5F8D8780E0DF9140
:10025000CF911F910F91FF90EF90DF90CF90BF90C3
:10026000AF909F908F907F905F904F903F902F9096
:1002700008952F923F924F925F926F927F928F924A
:100280009F92AF92BF92CF92DF92EF92FF920F9325
:100290001F93CF93DF936C01D62F3A01F22E102FCC
:1002A000C0E08E2C912CA12CB12CD601ED91FC91AB
:1002B0000190F081E02D01E02F2DA3016D2FC601EB
:1002C00009950E9440091B012C010E944009DC0194
:1002D000CB0182199309A409B50988159905AA05C6
:1002E000BB0538F46D2FC6010E94C000882369F356
:1002F00004C0CF5F1C17C8F680E0DF91CF911F913B
:100300000F91FF90EF90DF90CF90BF90AF909F90B4
:100310008F907F906F905F904F903F902F900895B7
:10032000CF93DF936072609396012091480222235D
:1003300069F120919601222349F120919501222310
:1003400029F1EC0180E00E94E00890E09195819510
:1003500091099F878E8720919501215020939501C7
:100360004B855C854115510589F08417950734F458
:100370002D852F3118F42F5F2D8708C04817590796
:100380002CF48D85882311F081508D87DF91CF91DA
:100390000895CF93DF93EC0161E08A810E941009F8
:1003A00089858CBD8A858DBD80919201811101C0A6
:1003B0007894DF91CF910895FC01F8948CB58187F2
:1003C0008DB582878CB5837F8CBD8CB58F7D8CBDC0
:1003D0008CB58C7F8CBD8DB58E7F8DBD60E08281AC
:1003E0000C941009009769F0FC0101900020E9F7D6
:1003F0003197AF01481B590BBC0187E991E00C9480
:10040000D40780E090E008958F929F92AF92BF92C0
:100410000F931F93CF93DF93CDB7DEB7A1970FB69E
:10042000F894DEBF0FBECDBF19A2423008F44AE0F7
:100430008E010F5D1F4F842E912CA12CB12CA50194
:1004400094010E94F50CE62FB901CA01015011096F
:10045000EA3014F4E05D01C0E95CD801EC93232B91
:10046000242B252B61F7C8010E94F201A1960FB63B
:10047000F894DEBF0FBECDBFDF91CF911F910F91DA
:10048000BF90AF909F908F90089590E0FC01E0574F
:10049000FF4F2491FC01E458FF4F8491882399F089
:1004A00090E0880F991FFC01EE58FF4FA591B49181
:1004B000FC01E859FF4F859194918FB7F894EC9126
:1004C000E22BEC938FBF08951F920F920FB60F92FD
:1004D00011242F933F934F935F936F937F938F9349
:1004E0009F93AF93BF93EF93FF93E0910201F0913D
:1004F00003010995FF91EF91BF91AF919F918F916A
:100500007F916F915F914F913F912F910F900FBE0F
:100510000F901F9018951F920F920FB60F921124F3
:100520002F933F934F935F936F937F938F939F93FB
:10053000AF93BF93EF93FF93E0910001F09101011E
:100540000995FF91EF91BF91AF919F918F917F910D
:100550006F915F914F913F912F910F900FBE0F9030
:100560001F9018950F931F93CF93DF9300D0CDB7B3
:10057000DEB78C01DC01ED91FC91008CF18DE02D5A
:100580004A83698309956981862F80680E94E00803
:100590004A81842F0E94E008D801ED91FC91028CE1
:1005A000F38DE02DC8010F900F90DF91CF911F9137
:1005B0000F9109941F93CF93DF93EC01162F6111D4
:1005C00002C045E501C04DE56AE5CE010E94B202D8
:1005D000111102C040E701C04CE76CE5CE01DF918C
:1005E000CF911F910C94B202EF92FF921F93CF9381
:1005F000DF931F92CDB7DEB77C01DC01ED91FC915A
:10060000008CF18DE02D698309956981862F8F77A4
:100610000E94E00880E00E94E008182FD701ED91C9
:10062000FC91028CF38DE02DC7010995812F0F906D
:10063000DF91CF911F91FF90EF9008959F92AF921D
:10064000BF92CF92DF92EF92FF920F931F93CF93BF
:10065000DF93EC01F62ED42E952E122FE881F9812E
:100660000488F589E02D61E0099567E2CE010E94DA
:10067000F40287FFFACF40E065E2CE010E94B202A9
:10068000EE2011F09C2D01C090E0190F1E3308F0F0
:100690001DE3E881F981008CF18DE02DCE010995F3
:1006A00080E80E94E00883E0810F0E94E0088F2D1F
:1006B0000E94E0088D810E94E008EE2099F0C110B0
:1006C00002C080E801C080EA0E94E008CC20B9F0B6
:1006D000C501B7FE03C09195819591090E94E0087C
:1006E00011500DC0002341F08B859C85892B11F49E
:1006F00080E403C080E601C080E00E94E008CD2CC9
:10070000ED2CF92C8E2D8C19811730F4F701819185
:100710007F010E94E008F6CFE881F981028CF38D19
:10072000E02DCE010995E881F9810488F589E02D55
:1007300064E0CE0109950E9440096B017C018B8128
:100740000E94E708892B99F0E881F9810488F589EE
:10075000E02D61E0CE01DF91CF911F910F91FF90CD
:10076000EF90DF90CF90BF90AF909F9009940E9440
:100770004009DC01CB018C199D09AE09BF09883EF7
:100780009340A105B105D8F2DFCFAF92BF92CF92CF
:10079000EF920F93A12CB12CC12C0E941E030F913C
:1007A000EF90CF90BF90AF900895CF93DF93EC017F
:1007B0006887611102C04AE101C04FE063E1CE01E8
:1007C0000E94B2028885882341F061E1CE010E9437
:1007D000F4028F71482F406602C04F81406861E18A
:1007E000CE01DF91CF910C94B202CF93DF93EC0155
:1007F000109295011092930110929101109245026E
:1008000010929401109248021092470210924602F0
:1008100068E20E94F40282FF0AC06DE3CE010E94EA
:10082000F402482F44606DE3CE010E94B20240E41E
:1008300065E2CE010E94B202E881F9810488F5895F
:10084000E02D63E0CE01DF91CF91099410929601E3
:100850000C94F503EF92FF921F93CF93DF93EC017B
:1008600080914902833001F568E2CE010E94F402D2
:1008700082FD2EC019C0809195018D3330F4E09136
:100880009501F0E0EE5AFE4F1082E881F981028C6A
:10089000F38DE02DCE010995E881F9810488F58971
:1008A000E02D63E0CE01099564E2CE010E94F402DE
:1008B00090E0919581959109959587959093470240
:1008C00080934602DF91CF911F91FF90EF900895A2
:1008D000E881F9810488F589E02D61E0CE01099570
:1008E000E881F981008CF18DE02DCE01099580E041
:1008F0000E94E00880E00E94E00880934502809119
:1009000045028334D0F4809145028093450280E013
:100910000E94E008809391018E81811109C090911D
:1009200091018D81981721F0809191018F3F39F4C9
:1009300080914502833018F017C082E4E6CF109210
:100940004502E881F981028CF38DE02DCE010995F5
:10095000E881F9810288F389E02DCE01DF91CF9102
:100960001F91FF90EF9009948091450283508093EE
:10097000950180E00E94E0088093930180E00E944E
:10098000E008982F907890934802982F9074909355
:100990009401E881F9810684F785E02D682FCE0166
:1009A000099510E080919501181708F064CFE12EA9
:1009B000F12C80E00E94E008F701EE5AFE4F8083A0
:1009C0001F5FF0CFCF92DF92EF92FF920F931F93B2
:1009D000CF93DF93EC01F62ED42EC52E122FE88193
:1009E000F9810488F589E02D61E0099567E2CE017F
:1009F0000E94F40287FFFACF40E065E2CE010E9438
:100A0000B2021E3308F01DE3E11004C0002321F000
:100A100000E403C000E801C000E0E881F981008C37
:100A2000F18DE02DCE01099580E80E94E00883E079
:100A3000810F0E94E0088F2D0E94E0088D810E94A6
:100A4000E008802F0E94E0080D2DED2CFC2C8E2D4F
:100A5000801B811730F4F70181917F010E94E0082B
:100A6000F6CFE881F981028CF38DE02DCE01099556
:100A7000E881F9810488F589E02D64E0CE010995CB
:100A80000E9440096B017C018B810E94E708892B41
:100A900081F0E881F9810488F589E02D61E0CE01DB
:100AA000DF91CF911F910F91FF90EF90DF90CF904A
:100AB00009940E944009DC01CB018C199D09AE0903
:100AC000BF09883E9340A105B105F0F2E2CFCF9374
:100AD000DF93209149022330C9F42091450221116E
:100AE00015C0EC0164E20E94F40290E091958195BA
:100AF00091098C349F4F54F4E881F9810488F58979
:100B0000E02D61E0CE01099581E001C080E0DF9138
:100B1000CF9108952F923F924F925F926F927F9262
:100B20008F929F92AF92BF92CF92EF92FF920F93CC
:100B30001F93CF93DF93EC013B01F42E10929401AD
:100B40001091930180904602909047028091960107
:100B5000CC24C394811101C0C12C6DE3CE010E944D
:100B6000F402482F44606DE3CE010E94B2020E945D
:100B700040091B012C01CE010E946705882311F159
:100B8000109393015401EE24E39400E02F2DA30170
:100B9000612FCE010E941E0390924702809246026E
:100BA000DF91CF911F910F91FF90EF90CF90BF9069
:100BB000AF909F908F907F906F905F904F903F90FD
:100BC0002F9008950E944009DC01CB0182199309FE
:100BD000A409B509883E9340A105B10588F6E881CE
:100BE000F9810480F581E02DCE010995C4CF4F92A3
:100BF0005F926F927F92AF92BF92CF92DF92EF920D
:100C0000FF920F931F93CF93DF93EC015B01F42EC0
:100C10001092940110919301C0904602D090470227
:100C20006DE30E94F402482F44606DE3CE010E9400
:100C3000B2020E9440092B013C01CE010E946705CF
:100C4000882311F110939301E881F9810088F189DB
:100C5000E02DEE24E39400E02F2DA501612FCE01BD
:100C60000995D0924702C0924602DF91CF911F9121
:100C70000F91FF90EF90DF90CF90BF90AF907F905B
:100C80006F905F904F9008950E944009DC01CB0166
:100C900084199509A609B709883E9340A105B105B5
:100CA00088F6E881F9810480F581E02DCE0109956F
:100CB000C4CF8F929F92AF92BF92CF92DF92EF926A
:100CC000FF920F931F93CF93DF93EC01162F6A01CE
:100CD000F22E6DE30E94F402482F44606DE3CE01D2
:100CE0000E94B2020E9440094B015C01CE010E94A9
:100CF00067058823C1F0E881F9810088F189E02D3A
:100D0000E12C2F2DA601612FCE010995DF91CF9106
:100D10001F910F91FF90EF90DF90CF90BF90AF9019
:100D20009F908F9008950E944009DC01CB018819A3
:100D30009909AA09BB09883E9340A105B105D8F6D7
:100D4000E881F9810480F581E02DCE010995CECFAF
:100D5000CF93DF93EC01603208F06FE16F838885F9
:100D6000882311F066956F8361E1CE010E94F40241
:100D7000807E9F81482F492B61E1CE01DF91CF9189
:100D80000C94B2021F93CF93DF9320914902621714
:100D900009F45DC0162FEC016230E9F168F46623B6
:100DA00009F440C0613009F052C061E00E94F402D1
:100DB000837E482F44603BC06330B9F0643009F053
:100DC00046C061E00E94F402837E482F4C6061E0DF
:100DD000CE010E94B2028885882369F1E881F981F9
:100DE0000688F789E02D61E013C061E00E94F402FB
:100DF000837E482F406161E0CE010E94B202888567
:100E00008823C9F0E881F9810688F789E02D60E040
:100E1000CE01099510C061E00E94F402837E482F44
:100E2000486005C061E00E94F402482F437E61E003
:100E3000CE010E94B20280914902811106C067E290
:100E4000CE010E94F40287FFF6CF10934902DF9192
:100E5000CF911F9108951F93CF93DF932091490263
:100E60006217A9F0162FEC010E94C206143079F423
:100E70008B859C85892B59F0E881F9810284F38563
:100E8000E02D6D85CE01DF91CF911F910994DF9107
:100E9000CF911F9108950895833081F028F4813017
:100EA00099F08230A1F008958730A9F08830B9F028
:100EB0008430D1F4809180008F7D03C080918000C8
:100EC0008F7780938000089584B58F7702C084B5B2
:100ED0008F7D84BD08958091B0008F7703C080918D
:100EE000B0008F7D8093B00008953FB7F894809153
:100EF000500290915102A0915202B091530226B536
:100F0000A89B05C02F3F19F00196A11DB11D3FBF41
:100F1000BA2FA92F982F8827820F911DA11DB11DCF
:100F2000BC01CD0143E0660F771F881F991F4A95CA
:100F3000D1F708958F929F92AF92BF92CF92DF9296
:100F4000EF92FF926B017C010E9475074B015C01DF
:100F5000C114D104E104F104F1F00E947507DC0131
:100F6000CB0188199909AA09BB09883E9340A105BC
:100F7000B10570F321E0C21AD108E108F10888EE4A
:100F8000880E83E0981EA11CB11CC114D104E10499
:100F9000F10419F7DDCFFF90EF90DF90CF90BF9075
:100FA000AF909F908F900895CF92DF92EF92FF9233
:100FB0000F931F93CF93DF936C017A018B01C0E0F5
:100FC000D0E0CE15DF0589F0D8016D918D01D601F5
:100FD000ED91FC910190F081E02DC6010995892BDE
:100FE00011F47E0102C02196ECCFC701DF91CF91B1
:100FF0001F910F91FF90EF90DF90CF90089508958B
:1010000080E090E00895FC01538D448D252F30E061
:10101000842F90E0821B930B541710F0CF96089505
:1010200001970895FC01918D828D981761F0828D52
:10103000DF01A80FB11D5D968C91928D9F5F9F730C
:10104000928F90E008958FEF9FEF0895FC01918DAE
:10105000828D981731F0828DE80FF11D858D90E01B
:1010600008958FEF9FEF0895FC01918D228D892FB8
:1010700090E0805C9F4F821B91098F7399270895A0
:1010800087E991E00E94340821E0892B09F420E0EF
:10109000822F0895FC01848DDF01A80FB11DA35A92
:1010A000BF4F2C91848D90E001968F739927848F88
:1010B000A689B7892C93A089B1898C9180648C937F
:1010C000938D848D981306C00288F389E02D80816A
:1010D0008F7D80830895EF92FF920F931F93CF939C
:1010E000DF93EC0181E0888F9B8D8C8D981305C078
:1010F000E889F989808185FD24C0F62E0B8D10E0EA
:101100000F5F1F4F0F731127E02E8C8DE8120CC05C
:101110000FB607FCFACFE889F989808185FFF5CF02
:10112000CE010E944A08F1CF8B8DFE01E80FF11D20
:10113000E35AFF4FF0820B8FEA89FB89808180623E
:1011400007C0EE89FF896083E889F989808180641E
:10115000808381E090E0DF91CF911F910F91FF900C
:10116000EF900895CF93DF93EC01888D8823C9F029
:10117000EA89FB89808185FD05C0A889B9898C91A0
:1011800086FD0FC00FB607FCF5CF808185FFF2CF3B
:10119000A889B9898C9185FFEDCFCE010E944A08BC
:1011A000E7CFDF91CF91089580E090E0892B29F07F
:1011B0000E94400881110C94000008950E941D0DAA
:1011C0008EBD00000DB407FEFDCF8EB50895CF9300
:1011D000DF93282F30E0F901E255FF4F8491F901A8
:1011E000E057FF4FD491F901E458FF4FC491CC234D
:1011F00091F081110E944C07EC2FF0E0EE0FFF1FE1
:10120000EC55FF4FA591B491EC91ED2381E090E076
:1012100021F480E002C080E090E0DF91CF9108955A
:101220001F93CF93DF93282F30E0F901E255FF4F52
:101230008491F901E057FF4FD491F901E458FF4F31
:10124000C491CC23C9F0162F81110E944C07EC2FBA
:10125000F0E0EE0FFF1FE859FF4FA591B4918FB753
:10126000F894111105C09C91ED2FE095E92302C07F
:10127000EC91ED2BEC938FBFDF91CF911F910895EF
:101280002FB7F89460914C0270914D0280914E02FC
:1012900090914F022FBF08951F920F920FB60F9299
:1012A00011242F933F938F939F93AF93BF9380917C
:1012B0004C0290914D02A0914E02B0914F0230919C
:1012C0004B0226E0230F2D3720F40296A11DB11DFD
:1012D00005C029E8230F0396A11DB11D20934B02E1
:1012E00080934C0290934D02A0934E02B0934F0214
:1012F0008091500290915102A0915202B0915302FC
:101300000196A11DB11D8093500290935102A093AC
:101310005202B0935302BF91AF919F918F913F9131
:101320002F910F900FBE0F901F9018951F920F9244
:101330000FB60F9211242F933F934F935F936F93A8
:101340007F938F939F93AF93BF93EF93FF9387E91F
:1013500091E00E944A08FF91EF91BF91AF919F9158
:101360008F917F916F915F914F913F912F910F904E
:101370000FBE0F901F9018951F920F920FB60F92ED
:1013800011242F938F939F93EF93FF93E091A701E5
:10139000F091A8018081E091AD01F091AE0182FD54
:1013A00012C090818091B0018F5F8F732091B10145
:1013B000821751F0E091B001F0E0E956FE4F958FB1
:1013C0008093B00101C08081FF91EF919F918F9137
:1013D0002F910F900FBE0F901F901895E7E9F1E045
:1013E0001382128288EE93E0A0E0B0E084839583BC
:1013F000A683B78388E091E09183808385EC90E0B9
:101400009587848784EC90E09787868780EC90E0CE
:10141000918B808B81EC90E0938B828B82EC90E0BF
:10142000958B848B86EC90E0978B868B118E128E39
:10143000138E148EE4E3F2E08AE0828382E08383F9
:1014400081E08093490216828FE1878310868AE1CA
:1014500091E0918380830895CF93DF93CDB7DEB77A
:10146000AE970FB6F894DEBF0FBECDBF789484B5AB
:10147000826084BD84B5816084BD85B5826085BD90
:1014800085B5816085BD80916E00816080936E001E
:101490001092810080918100826080938100809110
:1014A00081008160809381008091800081608093C1
:1014B00080008091B10084608093B1008091B00081
:1014C00081608093B00080917A00846080937A007C
:1014D00080917A00826080937A0080917A008E7F7A
:1014E00080937A0080917A00806880937A001092CD
:1014F000C100E091A701F091A80182E08083E09112
:10150000A301F091A4011082E091A501F091A60140
:1015100089E180831092AF01E091AB01F091AC01C1
:1015200086E08083E091A901F091AA018081806129
:101530008083E091A901F091AA0180818860808375
:10154000E091A901F091AA01808180688083E091F7
:10155000A901F091AA0180818F7D808389E00E949A
:10156000450261E089E00E9410096AE070E080E0D5
:1015700090E00E949A071092400210923F0210924F
:10158000430210924202109296018FE18093410231
:1015900080913702823021F0833021F08FEF03C039
:1015A00080E001C081E0809338029EE28E010F5FEF
:1015B0001F4FF801892F11928A95E9F781E08983FD
:1015C00084E08A8332E03B8323E02D833E838F8354
:1015D00080E4888735E039872A8726E02B8723E354
:1015E0002C8737E03D8728E02F8729E0298B29E1E8
:1015F0002B8B22E42C8B45E24D8B8E8B46E24F8B5E
:10160000388F38E2398F30E13A8F39E23B8F3CED49
:101610003C8F9D8F98E89E8F9FE29F8F9DE298A3BD
:1016200090E399A337E33BA330E93CA338E33DA320
:101630002EA32CE32FA32FE828A72DE329A722E12F
:101640002AA72FE62BA79CA79FEF9DA79CE69E8726
:10165000888B88EC8AA361E0809136020E94100991
:10166000809136020E944502FFB6F89480914A02AA
:10167000811124C0E6E8F0E08491EAE9F0E0949179
:10168000E82FF0E0EE0FFF1FEE58FF4FA591B49149
:10169000EC91E92321F461E08AE00E9410098AE0DC
:1016A0000E9445028CB580618CBD8CB580648CBD78
:1016B0008DE00E9445028BE00E94450280914A0223
:1016C0008F5F80934A02FFBE0E9440096B017C013C
:1016D0004AEA6FE284E392E00E94B2026FE284E39E
:1016E00092E00E94F4028A3A61F00E944009DC0113
:1016F000CB018C199D09AE09BF09C297A105B1059F
:1017000038F30E9440096B017C0145E56FE284E3F8
:1017100092E00E94B2026FE284E392E00E94F4023F
:10172000853561F00E944009DC01CB018C199D09CF
:10173000AE09BF09C297A105B10538F3F12CF80134
:10174000EF0DF11DEF0DF11D60816F3F39F041810B
:1017500084E392E00E94B202F394F1CFE09134026C
:10176000F09135020488F589E02D61E084E392E090
:1017700009956DE384E392E00E94F402482F4E7FC6
:101780006DE384E392E00E94B20260913C0284E344
:1017900092E00E94D503E0913402F0913502048872
:1017A000F589E02D61E084E392E009950E9440090B
:1017B0006B017C0167E284E392E00E94F40287FD02
:1017C0000CC00E944009DC01CB018C199D09AE09B7
:1017D000BF09C297A105B10568F30E944009DC0169
:1017E000CB018C199D09AE09BF09C297A105B105AE
:1017F00040F510929201809138028230C8F4E82FAF
:10180000F0E0EE0FFF1FE050FF4F2FEA30E0318392
:101810002083813039F08091690083608093690072
:10182000E89A06C0809169008C6080936900E99A0B
:1018300084E392E09093900180938F0181E0809304
:10184000390248E663E084E392E00E94B2024BE290
:1018500064E084E392E00E94B20240E065E084E349
:1018600092E00E94B20242E566E084E392E00E94C8
:10187000B202E0913402F09135020488F589E02D3E
:1018800061E084E392E0099584E392E00E94DC0148
:101890008EEB0E94E00806E311E030E1F32EF00E3B
:1018A000F80181918F010E94E008F012F9CF84E3E2
:1018B00092E00E94C9016DE384E392E00E94F40289
:1018C000482F41606DE384E392E00E94B2028AEB0C
:1018D0009FEF9093400280933F0284E392E00E9446
:1018E0008D00882309F474C087E491E00E94F2011E
:1018F0006091930170E080E090E04AE00E94040271
:1019000089E491E00E94F20110E08091950118179E
:1019100088F4E12FF0E0EE5AFE4F608170E080E045
:1019200090E04AE00E94040289E491E00E94F20102
:101930001F5FEBCF8BE491E00E94F20164E284E34D
:1019400092E00E94F40290E091958195910995951D
:1019500087956C01092E000CEE08FF08892BA1F079
:10196000E0919701F09198010190F081E02D6DE2F6
:1019700087E991E0099566277727CB016C197D09E6
:101980008E099F094AE004C04AE060E070E0CB01A4
:101990000E9404028DE491E00E94F2018FE491E044
:1019A0000E94F20180919401882321F0809191019D
:1019B0008F3F89F461E089E00E94100964E170E0E2
:1019C00080E090E00E949A0760E089E00E941009A0
:1019D0000E94D40882CF8091930140E061E571E0DC
:1019E00084E392E00E948A05E5CFA1E21A2EAA1BA9
:1019F000BB1BFD010DC0AA1FBB1FEE1FFF1FA217BF
:101A0000B307E407F50720F0A21BB30BE40BF50BBB
:101A1000661F771F881F991F1A9469F76095709544
:101A2000809590959B01AC01BD01CF010895EE0F0B
:101A3000FF1F0590F491E02D099481E090E0F89467
:081A40000C94220DF894FFCF75
:101A48008C008C00000000006B08D4070308B20863
:101A5800340812082608000000005906E0008D002E
:101A68008A05D503A8062A049001C50326042B0776
:101A7800DA02DC01C9015245786F6D657465725FE1
:101A8800656E636B6579004F4B2000280029000DB7
:021A98000A0042
:00000001FF
