:100000000C9462000C9456020C942F020C948A00FB
:100010000C948A000C948A000C948A000C948A0038
:100020000C948A000C948A000C948A000C948A0028
:100030000C948A000C948A000C948A000C948A0018
:100040000C94A4090C948A000C94A3020C947D02D5
:100050000C948A000C948A000C948A000C948A00F8
:100060000C948A000C948A000000000023002600F3
:10007000290000000008000201000003040700003E
:1000800000000000000000000000250028002B00F8
:1000900000000000240027002A00040404040404D3
:1000A0000404020202020202030303030303010227
:1000B00004081020408001020408102001020408F6
:1000C0001020C30C11241FBECFEFD8E0DEBFCDBF80
:1000D00011E0A0E0B1E0E0E6FAE102C005900D9287
:1000E000A235B107D9F722E0A2E5B1E001C01D9227
:1000F000A435B207E1F710E0C2E6D0E004C02197D2
:10010000FE010E94230DC136D107C9F70E94EE09F6
:100110000C942E0D0C9400000895CF92DF92EF9274
:10012000FF920F931F93CF93DF936C017A018B01A2
:10013000C0E0D0E0CE15DF0589F0D8016D918D01CA
:10014000D601ED91FC910190F081E02DC601099559
:10015000892B11F47E0102C02196ECCFC701DF91FB
:10016000CF911F910F91FF90EF90DF90CF90089566
:10017000089580E090E00895FC01538D448D252F73
:1001800030E0842F90E0821B930B541710F0CF9631
:10019000089501970895FC01918D828D981761F063
:1001A000828DDF01A80FB11D5D968C91928D9F5FAE
:1001B0009F73928F90E008958FEF9FEF0895FC0159
:1001C000918D828D981731F0828DE80FF11D858D0C
:1001D00090E008958FEF9FEF0895FC01918D228D9F
:1001E000892F90E0805C9F4F821B91098F73992724
:1001F00008958CE991E00E94ED0021E0892B09F43B
:1002000020E0822F0895FC01848DDF01A80FB11D2D
:10021000A35ABF4F2C91848D90E001968F7399273C
:10022000848FA689B7892C93A089B1898C91806429
:100230008C93938D848D981306C00288F389E02DEA
:1002400080818F7D80830895EF92FF920F931F939B
:10025000CF93DF93EC0181E0888F9B8D8C8D981379
:1002600005C0E889F989808185FD24C0F62E0B8DB3
:1002700010E00F5F1F4F0F731127E02E8C8DE812D7
:100280000CC00FB607FCFACFE889F989808185FF99
:10029000F5CFCE010E940301F1CF8B8DFE01E80F57
:1002A000F11DE35AFF4FF0820B8FEA89FB898081B1
:1002B000806207C0EE89FF896083E889F9898081BF
:1002C0008064808381E090E0DF91CF911F910F9156
:1002D000FF90EF900895CF93DF93EC01888D8823F2
:1002E000C9F0EA89FB89808185FD05C0A889B989A3
:1002F0008C9186FD0FC00FB607FCF5CF808185FF7E
:10030000F2CFA889B9898C9185FFEDCFCE010E94EB
:100310000301E7CFDF91CF91089580E090E0892B32
:1003200029F00E94F90081110C9400000895CF93E8
:10033000DF9360726093560120915201222369F18C
:1003400020915601222349F120915901222329F1BC
:10035000EC0180E00E94600490E091958195910904
:100360009F878E87209159012150209359014B85F9
:100370005C854115510589F08417950734F42D8566
:100380002F3118F42F5F2D8708C0481759072CF418
:100390008D85882311F081508D87DF91CF9108954D
:1003A0000E94290D109256010C94F3042F923F9253
:1003B0004F925F927F928F929F92AF92BF92CF9215
:1003C000DF92EF92FF920F931F93CF93DF93EC0195
:1003D000B62E4A01722EA02E10E0CE2CD12CE12C8C
:1003E000F12CE881F9810190F081E02D01E0272DC9
:1003F000A4016B2DCE0109950E9498091B012C01C7
:100400000E949809DC01CB0182199309A409B5095E
:100410008C159D05AE05BF0538F46B2DCE010E94ED
:10042000E903882369F309C01F5FA116D0F68D8503
:100430008F3110F48F5F8D8780E0DF91CF911F9116
:100440000F91FF90EF90DF90CF90BF90AF909F9073
:100450008F907F905F904F903F902F9008951F92C4
:100460000F920FB60F9211242F933F934F935F93E8
:100470006F937F938F939F93AF93BF93EF93FF936C
:10048000E0910201F09103010995FF91EF91BF9175
:10049000AF919F918F917F916F915F914F913F911C
:1004A0002F910F900FBE0F901F9018951F920F92D3
:1004B0000FB60F9211242F933F934F935F936F9337
:1004C0007F938F939F93AF93BF93EF93FF93E091AD
:1004D0000001F09101010995FF91EF91BF91AF915A
:1004E0009F918F917F916F915F914F913F912F914C
:1004F0000F900FBE0F901F9018951F920F920FB67E
:100500000F9211242F933F934F935F936F937F9399
:100510008F939F93AF93BF93EF93FF938CE991E0F9
:100520000E940301FF91EF91BF91AF919F918F9135
:100530007F916F915F914F913F912F910F900FBEDF
:100540000F901F9018951F920F920FB60F921124C3
:100550002F938F939F93EF93FF93E091AC01F091D2
:10056000AD018081E091B201F091B30182FD12C032
:1005700090818091B5018F5F8F732091B6018217B2
:1005800051F0E091B501F0E0E456FE4F958F809375
:10059000B50101C08081FF91EF919F918F912F91C3
:1005A0000F900FBE0F901F9018959F92AF92BF9221
:1005B000CF92DF92EF92FF920F931F93CF93DF932F
:1005C000EC01F62ED42E952E122FE881F9810488A5
:1005D000F589E02D61E0099567E2CE010E94A9044A
:1005E00087FFFACF40E065E2CE010E946704EE206B
:1005F00011F09C2D01C090E0190F1E3308F01DE38F
:10060000E881F981008CF18DE02DCE01099580E81B
:100610000E94600483E0810F0E9460048F2D0E947D
:1006200060048D810E946004EE2099F0C11002C028
:1006300080E801C080EA0E946004CC20B9F0C501C6
:10064000B7FE03C09195819591090E9460041150F5
:100650000DC0002341F08B859C85892B11F480E42B
:1006600003C080E601C080E00E946004CD2CED2C28
:10067000F92C8E2D8C19811730F4F70181917F01AF
:100680000E946004F6CFE881F981028CF38DE02DA1
:10069000CE010995E881F9810488F589E02D64E0AF
:1006A000CE0109950E9498096B017C018B810E9403
:1006B0000509892B99F0E881F9810488F589E02DF5
:1006C00061E0CE01DF91CF911F910F91FF90EF90EC
:1006D000DF90CF90BF90AF909F9009940E949809AF
:1006E000DC01CB018C199D09AE09BF09883E9340FE
:1006F000A105B105D8F2DFCFAF92BF92CF92EF92B2
:100700000F93A12CB12CC12C0E94D5020F91EF9018
:10071000CF90BF90AF900895F89420913902233084
:1007200021F42091990121110FC020913902233029
:1007300011F4789407C0DC01ED91FC910288F389F3
:10074000E02D099580E00895DC01ED91FC9104888D
:10075000F589E02D61E0099581E0089581E08093BD
:1007600055018091530190915401DC01ED91FC9170
:100770000484F585E02D099510925501089508959A
:10078000CF93DF93EC0161E08A810E942E09898575
:100790008CBD8A858DBD80915501811101C07894F1
:1007A000DF91CF910895FC01F8948CB581878DB5C8
:1007B00082878CB5837F8CBD8CB58F7D8CBD8CB5CD
:1007C0008C7F8CBD8DB58E7F8DBD60E082810C9459
:1007D0002E09CF93DF931F92CDB7DEB7DC01ED91E9
:1007E000FC910480F581E02D698309956981882356
:1007F00061F080919701861711F06F3F29F4909175
:10080000520181E0911101C080E00F90DF91CF9102
:1008100008952F923F924F925F926F927F928F92A4
:100820009F92AF92BF92CF92DF92EF92FF920F937F
:100830001F93CF93DF936C01D62F3A01F22E102F26
:10084000C0E08E2C912CA12CB12CD601ED91FC9105
:100850000190F081E02D01E02F2DA3016D2FC60145
:1008600009950E9498091B012C010E949809DC013E
:10087000CB0182199309A409B50988159905AA0520
:10088000BB0538F46D2FC6010E94E903882369F384
:1008900004C0CF5F1C17C8F680E0DF91CF911F9195
:1008A0000F91FF90EF90DF90CF90BF90AF909F900F
:1008B0008F907F906F905F904F903F902F90089512
:1008C0008EBD00000DB407FEFDCF8EB508950F93C9
:1008D0001F93CF93DF9300D0CDB7DEB78C01DC013F
:1008E000ED91FC91008CF18DE02D4A83698309958F
:1008F0006981862F80680E9460044A81842F0E944B
:100900006004D801ED91FC91028CF38DE02DC801BB
:100910000F900F90DF91CF911F910F9109941F932A
:10092000CF93DF93EC01162F611102C045E501C0A2
:100930004DE56AE5CE010E946704111102C040E74F
:1009400001C04CE76CE5CE01DF91CF911F910C9473
:100950006704EF92FF921F93CF93DF931F92CDB75F
:10096000DEB77C01DC01ED91FC91008CF18DE02D76
:10097000698309956981862F8F770E94600480E0E2
:100980000E946004182FD701ED91FC91028CF38D29
:10099000E02DC7010995812F0F90DF91CF911F9115
:1009A000FF90EF900895CF93DF93EC01688761117A
:1009B00002C04AE101C04FE063E1CE010E9467043A
:1009C0008885882341F061E1CE010E94A9048F71DE
:1009D000482F406602C04F81406861E1CE01DF913F
:1009E000CF910C946704CF93DF93EC0110925901DF
:1009F000109297011092570110929901109258018C
:100A00001092520110929B0110929A0168E20E948A
:100A1000A90482FF0AC06DE3CE010E94A904482FF9
:100A200044606DE3CE010E94670440E465E2CE01BC
:100A30000E946704E881F9810488F589E02D63E06C
:100A4000CE01DF91CF910994CF93DF9320913902AA
:100A50002330C9F420919901211115C0EC0164E201
:100A60000E94A90490E09195819591098C349F4F43
:100A700054F4E881F9810488F589E02D61E0CE0124
:100A8000099581E001C080E0DF91CF9108952F9218
:100A90003F924F925F926F927F928F929F92AF920E
:100AA000BF92CF92EF92FF920F931F93CF93DF935A
:100AB000EC013B01F42E10925801109197018090A7
:100AC0009A0190909B0180915601CC24C39481118E
:100AD00001C0C12C6DE3CE010E94A904482F4460DF
:100AE0006DE3CE010E9467040E9498091B012C014E
:100AF000CE010E942405882311F11093970154011F
:100B0000EE24E39400E02F2DA301612FCE010E947B
:100B1000D50290929B0180929A01DF91CF911F9113
:100B20000F91FF90EF90CF90BF90AF909F908F90DC
:100B30007F906F905F904F903F902F9008950E940C
:100B40009809DC01CB0182199309A409B509883EF3
:100B50009340A105B10588F6E881F9810480F5810B
:100B6000E02DCE010995C4CF4F925F926F927F9294
:100B7000AF92BF92CF92DF92EF92FF920F931F93AB
:100B8000CF93DF93EC015B01F42E1092580110918A
:100B90009701C0909A01D0909B016DE30E94A90437
:100BA000482F44606DE3CE010E9467040E949809BB
:100BB0002B013C01CE010E942405882311F11093E2
:100BC0009701E881F9810088F189E02DEE24E39412
:100BD00000E02F2DA501612FCE010995D0929B0138
:100BE000C0929A01DF91CF911F910F91FF90EF90EA
:100BF000DF90CF90BF90AF907F906F905F904F90BD
:100C000008950E949809DC01CB0184199509A60971
:100C1000B709883E9340A105B10588F6E881F981BE
:100C20000480F581E02DCE010995C4CF8F929F926B
:100C3000AF92BF92CF92DF92EF92FF920F931F93EA
:100C4000CF93DF93EC01162F6A01F22E6DE30E9421
:100C5000A904482F44606DE3CE010E9467040E94FE
:100C600098094B015C01CE010E9424058823C1F044
:100C7000E881F9810088F189E02DE12C2F2DA60172
:100C8000612FCE010995DF91CF911F910F91FF90B8
:100C9000EF90DF90CF90BF90AF909F908F9008958E
:100CA0000E949809DC01CB0188199909AA09BB099E
:100CB000883E9340A105B105D8F6E881F98104800A
:100CC000F581E02DCE010995CECFCF93DF93EC01D6
:100CD000603208F06FE16F838885882311F0669594
:100CE0006F8361E1CE010E94A904807E9F81482F1D
:100CF000492B61E1CE01DF91CF910C9467041F93E2
:100D0000CF93DF9320913902621709F45DC0162F4B
:100D1000EC016230E9F168F4662309F440C0613007
:100D200009F052C061E00E94A904837E482F44600C
:100D30003BC06330B9F0643009F046C061E00E9406
:100D4000A904837E482F4C6061E0CE010E946704B5
:100D50008885882369F1E881F9810688F789E02D83
:100D600061E013C061E00E94A904837E482F4061C6
:100D700061E0CE010E94670488858823C9F0E8817C
:100D8000F9810688F789E02D60E0CE01099510C051
:100D900061E00E94A904837E482F486005C061E09D
:100DA0000E94A904482F437E61E0CE010E9467049F
:100DB00080913902811106C067E2CE010E94A90428
:100DC00087FFF6CF10933902DF91CF911F910895DD
:100DD0001F93CF93DF93209139026217A9F0162F4A
:100DE000EC010E947F06143079F48B859C85892B59
:100DF00059F0E881F9810284F385E02D6D85CE01FB
:100E0000DF91CF911F910994DF91CF911F910895A8
:100E1000EF92FF921F93CF93DF93EC018091390201
:100E2000833001F568E2CE010E94A90482FD2EC044
:100E300019C0809159018D3330F4E0915901F0E0EF
:100E4000E65AFE4F1082E881F981028CF38DE02D85
:100E5000CE010995E881F9810488F589E02D63E0E8
:100E6000CE01099564E2CE010E94A90490E091951B
:100E7000819591099595879590939B0180939A010F
:100E8000DF91CF911F91FF90EF900895E881F98154
:100E90000488F589E02D61E0CE010995E881F981AA
:100EA000008CF18DE02DCE01099580E00E94600458
:100EB00080E00E94600480939901809199018334BD
:100EC000D0F4809199018093990180E00E946004A0
:100ED000809357018E81811109C0909157018D81B6
:100EE000981721F0809157018F3F39F48091990133
:100EF000833018F017C082E4E6CF10929901E881A0
:100F0000F981028CF38DE02DCE010995E881F981FC
:100F10000288F389E02DCE01DF91CF911F91FF90E0
:100F2000EF9009948091990183508093590180E05A
:100F30000E9460048093970180E00E946004982FD3
:100F4000907890935201982F907490935801E88173
:100F5000F9810684F785E02D682FCE01099510E010
:100F600080915901181708F064CFE12EF12C80E030
:100F70000E946004F701E65AFE4F80831F5FF0CFA6
:100F8000CF92DF92EF92FF920F931F93CF93DF9355
:100F9000EC01F62ED42EC52E122FE881F98104889B
:100FA000F589E02D61E0099567E2CE010E94A90470
:100FB00087FFFACF40E065E2CE010E9467041E334E
:100FC00008F01DE3E11004C0002321F000E403C099
:100FD00000E801C000E0E881F981008CF18DE02D8E
:100FE000CE01099580E80E94600483E0810F0E9491
:100FF00060048F2D0E9460048D810E946004802F08
:101000000E9460040D2DED2CFC2C8E2D801B811771
:1010100030F4F70181917F010E946004F6CFE881EE
:10102000F981028CF38DE02DCE010995E881F981DB
:101030000488F589E02D64E0CE0109950E949809A5
:101040006B017C018B810E940509892B81F0E8816D
:10105000F9810488F589E02D61E0CE01DF91CF911F
:101060001F910F91FF90EF90DF90CF9009940E9415
:101070009809DC01CB018C199D09AE09BF09883E96
:101080009340A105B105F0F2E2CF833081F028F45E
:10109000813099F08230A1F008958730A9F088302E
:1010A000B9F08430D1F4809180008F7D03C08091AD
:1010B00080008F7780938000089584B58F7702C079
:1010C00084B58F7D84BD08958091B0008F7703C073
:1010D0008091B0008F7D8093B00008953FB7F89461
:1010E0008091500290915102A0915202B09153020E
:1010F00026B5A89B05C02F3F19F00196A11DB11D73
:101100003FBFBA2FA92F982F8827820F911DA11DAD
:10111000B11DBC01CD0143E0660F771F881F991FE9
:101120004A95D1F70895009769F0FC0101900020DD
:10113000E9F73197AF01481B590BBC018CE991E0ED
:101140000C948D0080E090E008958F929F92AF9272
:10115000BF920F931F93CF93DF93CDB7DEB7A197C5
:101160000FB6F894DEBF0FBECDBF19A2423008F40F
:101170004AE08E010F5D1F4F842E912CA12CB12CC3
:10118000A50194010E94010DE62FB901CA01015089
:101190001109EA3014F4E05D01C0E95CD801EC9378
:1011A000232B242B252B61F7C8010E949308A196BD
:1011B0000FB6F894DEBF0FBECDBFDF91CF911F9168
:1011C0000F91BF90AF909F908F90089590E0FC0199
:1011D000E255FF4F2491FC01E656FF4F849188238E
:1011E00099F090E0880F991FFC01E057FF4FA591FF
:1011F000B491FC01EA57FF4F859194918FB7F89411
:10120000EC91E22BEC938FBF0895CF93DF93282FBF
:1012100030E0F901EE58FF4F8491F901E255FF4F9C
:10122000D491F901E656FF4FC491CC2391F081117E
:101230000E944508EC2FF0E0EE0FFF1FE859FF4F2A
:10124000A591B491EC91ED2381E090E021F480E050
:1012500002C080E090E0DF91CF9108951F93CF937B
:10126000DF93282F30E0F901EE58FF4F8491F90108
:10127000E255FF4FD491F901E656FF4FC491CC23BC
:10128000C9F0162F81110E944508EC2FF0E0EE0FF7
:10129000FF1FEA57FF4FA591B4918FB7F894111132
:1012A00005C09C91ED2FE095E92302C0EC91ED2B58
:1012B000EC938FBFDF91CF911F9108958F929F92F2
:1012C000AF92BF92CF92DF92EF92FF926B017C01BF
:1012D0000E946E084B015C01C114D104E104F104C9
:1012E000F1F00E946E08DC01CB0188199909AA0966
:1012F000BB09883E9340A105B10570F321E0C21AF5
:10130000D108E108F10888EE880E83E0981EA11C40
:10131000B11CC114D104E104F10419F7DDCFFF9031
:10132000EF90DF90CF90BF90AF909F908F900895F7
:101330002FB7F89460914C0270914D0280914E024B
:1013400090914F022FBF08951F920F920FB60F92E8
:1013500011242F933F938F939F93AF93BF938091CB
:101360004C0290914D02A0914E02B0914F023091EB
:101370004B0226E0230F2D3720F40296A11DB11D4C
:1013800005C029E8230F0396A11DB11D20934B0230
:1013900080934C0290934D02A0934E02B0934F0263
:1013A0008091500290915102A0915202B09153024B
:1013B0000196A11DB11D8093500290935102A093FC
:1013C0005202B0935302BF91AF919F918F913F9181
:1013D0002F910F900FBE0F901F901895CF93DF9312
:1013E000CDB7DEB7AE970FB6F894DEBF0FBECDBF58
:1013F000789484B5826084BD84B5816084BD85B5F0
:10140000826085BD85B5816085BD80916E008160FB
:1014100080936E00109281008091810082608093A1
:1014200081008091810081608093810080918000A3
:101430008160809380008091B10084608093B100CE
:101440008091B00081608093B00080917A008460C8
:1014500080937A0080917A00826080937A008091F4
:101460007A008E7F80937A0080917A0080688093E2
:101470007A001092C100E091AC01F091AD0182E0E0
:101480008083E091A801F091A9011082E091AA0166
:10149000F091AB0189E180831092B401E091B00139
:1014A000F091B10186E08083E091AE01F091AF014F
:1014B000808180618083E091AE01F091AF018081F5
:1014C00088608083E091AE01F091AF0180818068F7
:1014D0008083E091AE01F091AF0180818F7D8083A8
:1014E00089E00E94E60861E089E00E942E096AE036
:1014F00070E080E090E00E945E0910924602109237
:1015000045021092490210924802109256018FE152
:101510008093470280913D02823021F0833021F098
:101520008FEF03C080E001C081E080933E029EE225
:101530008E010F5F1F4FF801892F11928A95E9F7ED
:1015400081E0898384E08A8332E03B8323E02D833A
:101550003E838F8380E4888735E039872A8726E0B9
:101560002B8723E32C8737E03D8728E02F8729E06E
:10157000298B29E12B8B22E42C8B45E24D8B8E8B22
:1015800046E24F8B388F38E2398F30E13A8F39E2BB
:101590003B8F3CED3C8F9D8F98E89E8F9FE29F8F05
:1015A0009DE298A390E399A337E33BA330E93CA3E2
:1015B00038E33DA32EA32CE32FA32FE828A72DE388
:1015C00029A722E12AA72FE62BA79CA79FEF9DA77B
:1015D0009CE69E87888B88EC8AA361E080913C0220
:1015E0000E942E0980913C020E94E608FFB6F89402
:1015F00080919801811124C0E4EAF0E08491E8EB45
:10160000F0E09491E82FF0E0EE0FFF1FE057FF4F5E
:10161000A591B491EC91E92321F461E08AE00E9464
:101620002E098AE00E94E6088CB580618CBD8CB5DD
:1016300080648CBD8DE00E94E6088BE00E94E60885
:10164000809198018F5F80939801FFBE0E94980956
:101650006B017C014AEA6FE28AE392E00E94670430
:101660006FE28AE392E00E94A9048A3A61F00E9444
:101670009809DC01CB018C199D09AE09BF09C297FD
:10168000A105B10538F30E9498096B017C0145E57D
:101690006FE28AE392E00E9467046FE28AE392E0DD
:1016A0000E94A904853561F00E949809DC01CB01F4
:1016B0008C199D09AE09BF09C297A105B10538F380
:1016C000F12CF801EF0DF11DEF0DF11D60816F3F61
:1016D00039F041818AE392E00E946704F394F1CFEC
:1016E000E0913A02F0913B020488F589E02D61E037
:1016F0008AE392E009956DE38AE392E00E94A904EF
:10170000482F4E7F6DE38AE392E00E946704609168
:1017100042028AE392E00E94D304E0913A02F091FF
:101720003B020488F589E02D61E08AE392E00995A7
:101730000E9498096B017C0167E28AE392E00E94B3
:10174000A90487FD0CC00E949809DC01CB018C190B
:101750009D09AE09BF09C297A105B10568F30E94B2
:101760009809DC01CB018C199D09AE09BF09C2970C
:10177000A105B10540F51092550180913E028230DD
:10178000C8F4E82FF0E0EE0FFF1FE050FF4F2EEA05
:1017900033E031832083813039F0809169008360A8
:1017A00080936900E89A06C0809169008C608093FC
:1017B0006900E99A8AE392E090935401809353017F
:1017C00081E080933F0246E063E08AE392E00E947A
:1017D000670443E864E08AE392E00E94670441E022
:1017E00065E08AE392E00E9467044AE966E08AE3E2
:1017F00092E00E94670443E569E18AE392E00E9477
:10180000670442EC6DE38AE392E00E946704E09192
:101810003A02F0913B020488F589E02D61E08AE309
:1018200092E009958AE392E00E94D3038EEB0E9436
:10183000600406E311E030E1F32EF00EF80181912F
:101840008F010E946004F012F9CF8AE392E00E94B7
:10185000C0036DE38AE392E00E94A904482F41602F
:101860006DE38AE392E00E9467048AEB9FEF909316
:101870004602809345028AE392E00E948C0388230B
:1018800009F474C087E491E00E9493086091970185
:1018900070E080E090E04AE00E94A50889E491E0D1
:1018A0000E94930810E080915901181788F4E12FE5
:1018B000F0E0E65AFE4F608170E080E090E04AE0A0
:1018C0000E94A50889E491E00E9493081F5FEBCF76
:1018D0008BE491E00E94930864E28AE392E00E9424
:1018E000A90490E0919581959109959587956C0152
:1018F000092E000CEE08FF08892BA1F0E0919C0155
:10190000F0919D010190F081E02D6DE28CE991E074
:10191000099566277727CB016C197D098E099F09E8
:101920004AE004C04AE060E070E0CB010E94A508F4
:101930008DE491E00E9493088FE491E00E94930867
:1019400080915801882321F0809157018F3F89F4BD
:1019500061E089E00E942E0964E170E080E090E09F
:101960000E945E0960E089E00E942E090E948D01BC
:1019700082CF8091970140E061E571E08AE392E0D7
:101980000E944705E5CFECE9F1E01382128288EE70
:1019900093E0A0E0B0E084839583A683B78388E0DA
:1019A00091E09183808385EC90E09587848784EC37
:1019B00090E09787868780EC90E0918B808B81EC1C
:1019C00090E0938B828B82EC90E0958B848B86ECFD
:1019D00090E0978B868B118E128E138E148EEAE315
:1019E000F2E08AE0828382E0838381E0809339029F
:1019F00016828FE1878310868AE191E0918380834C
:101A00000895A1E21A2EAA1BBB1BFD010DC0AA1F3F
:101A1000BB1FEE1FFF1FA217B307E407F50720F057
:101A2000A21BB30BE40BF50B661F771F881F991FD2
:101A30001A9469F760957095809590959B01AC011B
:101A4000BD01CF010895EE0FFF1F0590F491E02D29
:101A5000099481E090E0F8940C942E0DF894FFCF57
:101A60008C008C000000000024018D00BC006B0184
:101A7000ED00CB00DF00000000001606D6018C034D
:101A80004705D3046506080797017C03D201E806E1
:101A90008F04D303C0035245786F6D657465725F20
:101AA000656E636B6579004F4B2000280029000D9F
:021AB0000A002A
:00000001FF
